{
  "contractName": "SwapExamples",
  "abi": [
    {
      "inputs": [],
      "name": "poolFee",
      "outputs": [
        {
          "internalType": "uint24",
          "name": "",
          "type": "uint24"
        }
      ],
      "stateMutability": "view",
      "type": "function"
    },
    {
      "inputs": [],
      "name": "swapRouter",
      "outputs": [
        {
          "internalType": "contract ISwapRouter",
          "name": "",
          "type": "address"
        }
      ],
      "stateMutability": "view",
      "type": "function"
    },
    {
      "inputs": [
        {
          "internalType": "uint256",
          "name": "amountIn",
          "type": "uint256"
        },
        {
          "internalType": "address",
          "name": "token_in",
          "type": "address"
        },
        {
          "internalType": "address",
          "name": "token_out",
          "type": "address"
        }
      ],
      "name": "swapExactInputSingle",
      "outputs": [
        {
          "internalType": "uint256",
          "name": "amountOut",
          "type": "uint256"
        }
      ],
      "stateMutability": "nonpayable",
      "type": "function"
    },
    {
      "inputs": [
        {
          "internalType": "uint256",
          "name": "amountOut",
          "type": "uint256"
        },
        {
          "internalType": "uint256",
          "name": "amountInMaximum",
          "type": "uint256"
        },
        {
          "internalType": "address",
          "name": "token_in",
          "type": "address"
        },
        {
          "internalType": "address",
          "name": "token_out",
          "type": "address"
        }
      ],
      "name": "swapExactOutputSingle",
      "outputs": [
        {
          "internalType": "uint256",
          "name": "amountIn",
          "type": "uint256"
        }
      ],
      "stateMutability": "nonpayable",
      "type": "function"
    }
  ],
  "bytecode": "0x608060405234801561001057600080fd5b50610e70806100206000396000f3fe608060405234801561001057600080fd5b506004361061004c5760003560e01c8063089fe6aa146100515780634ce4dca51461006f5780639d0b14c51461009f578063c31c9c07146100cf575b600080fd5b6100596100ed565b6040516100669190610d67565b60405180910390f35b61008960048036038101906100849190610ab5565b6100f3565b6040516100969190610d82565b60405180910390f35b6100b960048036038101906100b49190610b04565b610268565b6040516100c69190610d82565b60405180910390f35b6100d7610413565b6040516100e49190610d14565b60405180910390f35b610bb881565b60006101018333308761042b565b6101208373e592427a0aece92de3edee1f18e0157c058615648661064b565b60006040518061010001604052808573ffffffffffffffffffffffffffffffffffffffff1681526020018473ffffffffffffffffffffffffffffffffffffffff168152602001610bb862ffffff1681526020013373ffffffffffffffffffffffffffffffffffffffff16815260200142815260200186815260200160008152602001600073ffffffffffffffffffffffffffffffffffffffff16815250905073e592427a0aece92de3edee1f18e0157c0586156473ffffffffffffffffffffffffffffffffffffffff1663414bf389826040518263ffffffff1660e01b815260040161020c9190610d2f565b602060405180830381600087803b15801561022657600080fd5b505af115801561023a573d6000803e3d6000fd5b505050506040513d601f19601f8201168201806040525081019061025e9190610a8c565b9150509392505050565b60006102768333308761042b565b6102958373e592427a0aece92de3edee1f18e0157c058615648661064b565b60006040518061010001604052808573ffffffffffffffffffffffffffffffffffffffff1681526020018473ffffffffffffffffffffffffffffffffffffffff168152602001610bb862ffffff1681526020013373ffffffffffffffffffffffffffffffffffffffff168152602001428152602001878152602001868152602001600073ffffffffffffffffffffffffffffffffffffffff16815250905073e592427a0aece92de3edee1f18e0157c0586156473ffffffffffffffffffffffffffffffffffffffff1663db3e2198826040518263ffffffff1660e01b81526004016103809190610d4b565b602060405180830381600087803b15801561039a57600080fd5b505af11580156103ae573d6000803e3d6000fd5b505050506040513d601f19601f820116820180604052508101906103d29190610a8c565b91508482101561040a576103fc8473e592427a0aece92de3edee1f18e0157c05861564600061064b565b610409843384880361084c565b5b50949350505050565b73e592427a0aece92de3edee1f18e0157c0586156481565b6000808573ffffffffffffffffffffffffffffffffffffffff166323b872dd60e01b868686604051602401808473ffffffffffffffffffffffffffffffffffffffff1681526020018373ffffffffffffffffffffffffffffffffffffffff1681526020018281526020019350505050604051602081830303815290604052907bffffffffffffffffffffffffffffffffffffffffffffffffffffffff19166020820180517bffffffffffffffffffffffffffffffffffffffffffffffffffffffff83818316178352505050506040518082805190602001908083835b6020831061052a5780518252602082019150602081019050602083039250610507565b6001836020036101000a0380198251168184511680821785525050505050509050019150506000604051808303816000865af19150503d806000811461058c576040519150601f19603f3d011682016040523d82523d6000602084013e610591565b606091505b50915091508180156105d157506000815114806105d057508080602001905160208110156105be57600080fd5b81019080805190602001909291905050505b5b610643576040517f08c379a00000000000000000000000000000000000000000000000000000000081526004018080602001828103825260038152602001807f535446000000000000000000000000000000000000000000000000000000000081525060200191505060405180910390fd5b505050505050565b6000808473ffffffffffffffffffffffffffffffffffffffff1663095ea7b360e01b8585604051602401808373ffffffffffffffffffffffffffffffffffffffff16815260200182815260200192505050604051602081830303815290604052907bffffffffffffffffffffffffffffffffffffffffffffffffffffffff19166020820180517bffffffffffffffffffffffffffffffffffffffffffffffffffffffff83818316178352505050506040518082805190602001908083835b6020831061072c5780518252602082019150602081019050602083039250610709565b6001836020036101000a0380198251168184511680821785525050505050509050019150506000604051808303816000865af19150503d806000811461078e576040519150601f19603f3d011682016040523d82523d6000602084013e610793565b606091505b50915091508180156107d357506000815114806107d257508080602001905160208110156107c057600080fd5b81019080805190602001909291905050505b5b610845576040517f08c379a00000000000000000000000000000000000000000000000000000000081526004018080602001828103825260028152602001807f534100000000000000000000000000000000000000000000000000000000000081525060200191505060405180910390fd5b5050505050565b6000808473ffffffffffffffffffffffffffffffffffffffff1663a9059cbb60e01b8585604051602401808373ffffffffffffffffffffffffffffffffffffffff16815260200182815260200192505050604051602081830303815290604052907bffffffffffffffffffffffffffffffffffffffffffffffffffffffff19166020820180517bffffffffffffffffffffffffffffffffffffffffffffffffffffffff83818316178352505050506040518082805190602001908083835b6020831061092d578051825260208201915060208101905060208303925061090a565b6001836020036101000a0380198251168184511680821785525050505050509050019150506000604051808303816000865af19150503d806000811461098f576040519150601f19603f3d011682016040523d82523d6000602084013e610994565b606091505b50915091508180156109d457506000815114806109d357508080602001905160208110156109c157600080fd5b81019080805190602001909291905050505b5b610a46576040517f08c379a00000000000000000000000000000000000000000000000000000000081526004018080602001828103825260028152602001807f535400000000000000000000000000000000000000000000000000000000000081525060200191505060405180910390fd5b5050505050565b600081359050610a5c81610e0c565b92915050565b600081359050610a7181610e23565b92915050565b600081519050610a8681610e23565b92915050565b600060208284031215610a9e57600080fd5b6000610aac84828501610a77565b91505092915050565b600080600060608486031215610aca57600080fd5b6000610ad886828701610a62565b9350506020610ae986828701610a4d565b9250506040610afa86828701610a4d565b9150509250925092565b60008060008060808587031215610b1a57600080fd5b6000610b2887828801610a62565b9450506020610b3987828801610a62565b9350506040610b4a87828801610a4d565b9250506060610b5b87828801610a4d565b91505092959194509250565b610b7081610d9d565b82525050565b610b7f81610de8565b82525050565b61010082016000820151610b9c6000850182610b67565b506020820151610baf6020850182610b67565b506040820151610bc26040850182610cd8565b506060820151610bd56060850182610b67565b506080820151610be86080850182610cf6565b5060a0820151610bfb60a0850182610cf6565b5060c0820151610c0e60c0850182610cf6565b5060e0820151610c2160e0850182610cc9565b50505050565b61010082016000820151610c3e6000850182610b67565b506020820151610c516020850182610b67565b506040820151610c646040850182610cd8565b506060820151610c776060850182610b67565b506080820151610c8a6080850182610cf6565b5060a0820151610c9d60a0850182610cf6565b5060c0820151610cb060c0850182610cf6565b5060e0820151610cc360e0850182610cc9565b50505050565b610cd281610daf565b82525050565b610ce181610dcf565b82525050565b610cf081610dcf565b82525050565b610cff81610dde565b82525050565b610d0e81610dde565b82525050565b6000602082019050610d296000830184610b76565b92915050565b600061010082019050610d456000830184610b85565b92915050565b600061010082019050610d616000830184610c27565b92915050565b6000602082019050610d7c6000830184610ce7565b92915050565b6000602082019050610d976000830184610d05565b92915050565b6000610da882610daf565b9050919050565b600073ffffffffffffffffffffffffffffffffffffffff82169050919050565b600062ffffff82169050919050565b6000819050919050565b6000610df382610dfa565b9050919050565b6000610e0582610daf565b9050919050565b610e1581610d9d565b8114610e2057600080fd5b50565b610e2c81610dde565b8114610e3757600080fd5b5056fea26469706673582212201164ce5c60a9367bcecfa2df43a766013f8adc5ea8d0e550d6320825f7b39b0264736f6c63430007060033",
  "immutableReferences": {},
  "source": "// SPDX-License-Identifier: GPL-2.0-or-later\npragma solidity =0.7.6;\npragma abicoder v2;\n\nimport '@uniswap/v3-periphery/contracts/libraries/TransferHelper.sol';\nimport '@uniswap/v3-periphery/contracts/interfaces/ISwapRouter.sol';\n\ncontract SwapExamples {\n    // For the scope of these swap examples,\n    // we will detail the design considerations when using\n    // `exactInput`, `exactInputSingle`, `exactOutput`, and  `exactOutputSingle`.\n\n    // It should be noted that for the sake of these examples, we purposefully pass in the swap router instead of inherit the swap router for simplicity.\n    // More advanced example contracts will detail how to inherit the swap router safely.\n\n    ISwapRouter public constant swapRouter = ISwapRouter(0xE592427A0AEce92De3Edee1F18E0157C05861564);\n\n    // This example swaps DAI/WETH9 for single path swaps and DAI/USDC/WETH9 for multi path swaps.\n\n\n    // For this example, we will set the pool fee to 0.3%.\n    uint24 public constant poolFee = 3000;\n\n\n    /// @notice swapExactInputSingle swaps a fixed amount of DAI for a maximum possible amount of WETH9\n    /// using the DAI/WETH9 0.3% pool by calling `exactInputSingle` in the swap router.\n    /// @dev The calling address must approve this contract to spend at least `amountIn` worth of its DAI for this function to succeed.\n    /// @param amountIn The exact amount of DAI that will be swapped for WETH9.\n    /// @return amountOut The amount of WETH9 received.\n    function swapExactInputSingle(uint256 amountIn, address token_in, address token_out) external returns (uint256 amountOut) {\n        // msg.sender must approve this contract\n\n        // Transfer the specified amount of DAI to this contract.\n        TransferHelper.safeTransferFrom(token_in, msg.sender, address(this), amountIn);\n\n        // Approve the router to spend DAI.\n        TransferHelper.safeApprove(token_in, address(swapRouter), amountIn);\n\n        // Naively set amountOutMinimum to 0. In production, use an oracle or other data source to choose a safer value for amountOutMinimum.\n        // We also set the sqrtPriceLimitx96 to be 0 to ensure we swap our exact input amount.\n        ISwapRouter.ExactInputSingleParams memory params =\n            ISwapRouter.ExactInputSingleParams({\n                tokenIn: token_in,\n                tokenOut: token_out,\n                fee: poolFee,\n                recipient: msg.sender,\n                deadline: block.timestamp,\n                amountIn: amountIn,\n                amountOutMinimum: 0,\n                sqrtPriceLimitX96: 0\n            });\n\n        // The call to `exactInputSingle` executes the swap.\n        amountOut = swapRouter.exactInputSingle(params);\n    }\n\n    /// @notice swapExactOutputSingle swaps a minimum possible amount of DAI for a fixed amount of WETH.\n    /// @dev The calling address must approve this contract to spend its DAI for this function to succeed. As the amount of input DAI is variable,\n    /// the calling address will need to approve for a slightly higher amount, anticipating some variance.\n    /// @param amountOut The exact amount of WETH9 to receive from the swap.\n    /// @param amountInMaximum The amount of DAI we are willing to spend to receive the specified amount of WETH9.\n    /// @return amountIn The amount of DAI actually spent in the swap.\n    function swapExactOutputSingle(uint256 amountOut, uint256 amountInMaximum, address token_in, address token_out) external returns (uint256 amountIn) {\n        // Transfer the specified amount of DAI to this contract.\n        TransferHelper.safeTransferFrom(token_in, msg.sender, address(this), amountInMaximum);\n\n        // Approve the router to spend the specifed `amountInMaximum` of DAI.\n        // In production, you should choose the maximum amount to spend based on oracles or other data sources to acheive a better swap.\n        TransferHelper.safeApprove(token_in, address(swapRouter), amountInMaximum);\n\n        ISwapRouter.ExactOutputSingleParams memory params =\n            ISwapRouter.ExactOutputSingleParams({\n                tokenIn: token_in,\n                tokenOut: token_out,\n                fee: poolFee,\n                recipient: msg.sender,\n                deadline: block.timestamp,\n                amountOut: amountOut,\n                amountInMaximum: amountInMaximum,\n                sqrtPriceLimitX96: 0\n            });\n\n        // Executes the swap returning the amountIn needed to spend to receive the desired amountOut.\n        amountIn = swapRouter.exactOutputSingle(params);\n\n        // For exact output swaps, the amountInMaximum may not have all been spent.\n        // If the actual amount spent (amountIn) is less than the specified maximum amount, we must refund the msg.sender and approve the swapRouter to spend 0.\n        if (amountIn < amountInMaximum) {\n            TransferHelper.safeApprove(token_in, address(swapRouter), 0);\n            TransferHelper.safeTransfer(token_in, msg.sender, amountInMaximum - amountIn);\n        }\n    }\n}",
  "sourcePath": "/Users/fatih/Smart Contract/uniswap_v3_single_swap/contracts/SwapExamples.sol",
  "compiler": {
    "name": "solc",
    "version": "0.7.6+commit.7338295f.Emscripten.clang"
  },
  "schemaVersion": "3.4.6",
  "updatedAt": "2022-11-25T18:06:48.407Z",
  "devdoc": {
    "kind": "dev",
    "methods": {
      "swapExactInputSingle(uint256,address,address)": {
        "details": "The calling address must approve this contract to spend at least `amountIn` worth of its DAI for this function to succeed.",
        "params": {
          "amountIn": "The exact amount of DAI that will be swapped for WETH9."
        },
        "returns": {
          "amountOut": "The amount of WETH9 received."
        }
      },
      "swapExactOutputSingle(uint256,uint256,address,address)": {
        "details": "The calling address must approve this contract to spend its DAI for this function to succeed. As the amount of input DAI is variable, the calling address will need to approve for a slightly higher amount, anticipating some variance.",
        "params": {
          "amountInMaximum": "The amount of DAI we are willing to spend to receive the specified amount of WETH9.",
          "amountOut": "The exact amount of WETH9 to receive from the swap."
        },
        "returns": {
          "amountIn": "The amount of DAI actually spent in the swap."
        }
      }
    },
    "version": 1
  },
  "userdoc": {
    "kind": "user",
    "methods": {
      "swapExactInputSingle(uint256,address,address)": {
        "notice": "swapExactInputSingle swaps a fixed amount of DAI for a maximum possible amount of WETH9 using the DAI/WETH9 0.3% pool by calling `exactInputSingle` in the swap router."
      },
      "swapExactOutputSingle(uint256,uint256,address,address)": {
        "notice": "swapExactOutputSingle swaps a minimum possible amount of DAI for a fixed amount of WETH."
      }
    },
    "version": 1
  }
}